:1000000072C100000C94E4400C9415410C944641DC
:100010000C9477410C94A8410C94D9410C940A4259
:100020000C943B428AC100000C94024B0C946C4B24
:1000300084C1000082C1000080C100000C94B90C92
:100040007CC100007AC1000078C1000076C10000C8
:1000500074C1000072C1000070C100000C94614ABC
:100060006CC100000C94D53D0C94003E0C94313EC4
:1000700064C1000062C1000060C100005EC10000F8
:100080005CC100005AC1000058C1000056C1000008
:1000900054C1000052C100005302580245025802E8
:1000A0004702490258024B0258024D0258024F02C1
:1000B0005102501687166F1668169E169E16471622
:1000C0009E1647169E164716471647169E16471643
:1000D0004716502454246824452545257324452576
:1000E0007D2445259124A524B7244525C924DB2456
:1000F00007634236B79BD8A71A39685618AEBAAB11
:10010000558C1D3CB7CC5763BD6DEDFD753EF617A4
:100110007231BF000000803F08000000BE922449F9
:10012000123EABAAAA2ABECDCCCC4C3E0000008029
:10013000BEABAAAAAA3E00000000BF000000803F9C
:100140000000000000084178D3BB4387D1133D195C
:100150000E3CC3BD4282AD2B3E68EC8276BED98F89
:10016000E1A93E4C80EFFFBE01C4FF7F3F000000CD
:100170000000FCF3CF3F0129022904290829102996
:10018000202940298029012C022C01260226042640
:1001900008261026202640268026402C802C01236D
:1001A000022304230823102320234023802301203B
:1001B0000220042008201020202040208020102C25
:1001C000202C012F022F042F082F102F202F402F1B
:1001D000802F7EFE7EFD7EFB7EF77EEF7EDF7EBF84
:1001E0007E7F00010000BE0212000200002A02739E
:1001F000002201009D022100210100860209000366
:100200000000260204010309040C0218180354001C
:10021000650065006E007300790020004D00490004
:1002200044004900000004030904090273000201AC
:1002300000C032090400000201030000072401008D
:100240000141000624020101000624020202000905
:100250002403010301020100092403020401010136
:100260000009050402400000000005250101010904
:100270000583024000000000052501010309040177
:1002800000020300000009211101000122210007E2
:100290000581034000010705020320000206C9FF93
:1002A0000904A15C7508150026FF009540097581B9
:1002B0000295200976910295040976B102C01201D7
:1002C000000200000040C016850472020001000117
:1002D00001C13601C026018136018036A516A1254F
:1002E000503EB84D5C1711241FBECFEFD0E2DEBFE9
:1002F000CDBF14E0A0E0B1E0E6E2F7EA00E00BBF1A
:1003000002C007900D92A63FB107D9F72DE1A6EFE5
:10031000B4E001C01D92A23FB207E1F711E0C2E7CD
:10032000D1E004C02197FE010E94444ECE36D10791
:10033000C9F70E94B9460C94875362CECF93DF93DE
:10034000EC0184E2888380E099E0ADE3B0E089834A
:100350009A83AB83BC838091190190911A01A0917B
:100360001B01B0911C018D839E83AF83B887809160
:100370001D0190911E01A0911F0189879A87AB876B
:100380001C861D861E861F86188A198A1A8A1B8A51
:1003900086E0E0E2F1E0DE01549601900D928A954C
:1003A000E1F7FE017A9689E0DF011D928A95E9F76F
:1003B0001BA21CA21DA28FEF80BB11BA88810E94D4
:1003C0000549E881F0E00E944249DF91CF9108950C
:1003D000F894749A61BB749888E281500000E9F740
:1003E000749A78940895CF93DF93EC016FE9F0DF6E
:1003F0006FEBCE01EDDF6FEDCE01EADF6FEFCE01E7
:10040000DF91CF91E5CFFC01E60FF11D40892FE789
:1004100030E0241B310943E0359527954A95E1F7F3
:1004200065816068622BD4CF0F931F93CF93DF93C6
:100430008C01CFE7D0E0C41BD10983E0CC0FDD1FD6
:100440008A95E1F72196F801638560688C2F8F709B
:10045000682BC801BDDFBE0194E0759567959A953C
:10046000E1F7C801DF91CF911F910F91B1CFDC016E
:100470001F96EC914E2F50E0FA01FC97ED30F105FC
:10048000B8F4E45BFF4F0C94444E61E00DC062E0B1
:100490000BC063E009C064E007C065E005C066E02A
:1004A00003C067E001C060E0606E92DF81E0089504
:1004B00080E00895CF93DF93EC011B8A6F87D7DF2D
:1004C000882329F063E0CE01DF91CF919CCFDF91AB
:1004D000CF9108950F931F93CF93DF936330C8F4A8
:1004E000EA018C01942F9F709068F801E60FF11DCE
:1004F0008185692F682BC8016BDFBE0184E075958B
:1005000067958A95E1F7C801DF91CF911F910F910F
:100510005FCFDF91CF911F910F9108954F925F921E
:100520006F927F928F929F92AF92BF92FF920F93A2
:100530001F93CF93DF93633008F066C0F62E8C01D3
:10054000C62FD0E0FC01EC0FFD1F648570E0655400
:100550007109072E000C880B990B0E94664F20E052
:1005600030E040E451E40E94CB4E4B015C012A96FE
:10057000CC0FDD1FC00FD11F688179817052072E0B
:10058000000C880B990B0E94664F20E030E040E49D
:1005900057E40E94CB4E9B01AC01C501B4010E94FF
:1005A000674E9B01AC0160E070E080E090E40E9447
:1005B00055502B013C01F801618172818381948146
:1005C0000E94664F4B015C0120E030E04CED53E4AB
:1005D000C301B2010E94F24F20E030E040E052E45B
:1005E0000E94F24F9B01AC01C501B4010E94CB4EA9
:1005F0000E94384F6115F4E07F0730F4AB016F2D96
:10060000C80168DF81E001C080E0DF91CF911F91D8
:100610000F91FF90BF90AF909F908F907F906F90C1
:100620005F904F900895633040F4FC01E60FF11D98
:10063000E60FF11D558B448B71CF0895643008F49B
:10064000E2CE0895FC0120E030E0448D461314C052
:10065000438D411111C0F901EE0FFF1FE20FF31F8F
:10066000E80FF91F128EFC01E20FF31F448564139B
:100670000AC0108A622FE2CF2F5F3F4F339623309C
:10068000310519F708950895DDCFEF92FF920F938A
:100690001F93CF93DF938C01EC017C0189E0E80E7E
:1006A000F11C8B8D882339F08A8D882321F01B8ED5
:1006B0006C8DC801C7DF2396CE15DF0591F7DF915A
:1006C000CF911F910F91FF90EF900895FC01099633
:1006D00021E0338D311103C0328D3111238F3396D8
:1006E000E817F907B1F70895FB0101900020E9F739
:1006F0003197AF01461B570BDC01ED91FC91028055
:10070000F381E02D0994F0CF362F242F462F50E0AF
:1007100060E070E0211108C0DC01ED91FC910190D6
:10072000F081E02D632F09942A3011F0213019F463
:1007300020E00C94F93E203111F40C94723F2230E9
:1007400011F40C94AE3F0C94E23FFA01AB01770F29
:10075000660B770BEA30F10511F40C94653FE1115B
:1007600008C0DC01ED91FC910190F081E02D642F37
:100770000994EA3011F0E13019F420E00C94F93ECC
:10078000E03111F40C94723FE23011F40C94AE3F5E
:100790002E2F0C94E23F0F931F93CF93DF93EC0126
:1007A000A3DF8C01CE010E94DF3E800F911FDF91FD
:1007B000CF911F910F910895CF93DF93FC018AE0B1
:1007C00080838BE081838CE082838DE083838EE065
:1007D00084838FE08583168287E087831086DF011C
:1007E000A25ABE4F8EE1ED0119928A95E9F75E9605
:1007F0001C928FEF80BB11BA87B988B18C6388B91E
:10080000A357B14086E9ED0119928A95E9F7E156BF
:10081000FF4F87E8DF011D928A95E9F7DF91CF91BD
:100820000895FC01808190E0FC010E94484924E683
:10083000322F31500000E9F7FC010E94424921505B
:100840000000E9F70895AF92BF92CF92DF92EF9246
:10085000FF920F931F93CF93DF93EC0166E271E059
:1008600082EE9DE198DF7E0189E0E80EF11C00E058
:1008700010E021E2C22ED12CC80187709927892B64
:10088000D1F40115110521F082EE9DE10E94DF3EB9
:1008900062E471E082EE9DE136DF40E150E0B601B6
:1008A00082EE9DE152DF62E473E082EE9DE12BDF98
:1008B000E8E0CE0ED11C5701F7018081803128F489
:1008C00065E471E082EE9DE11EDFFFEFEF1AFF0AA3
:1008D00040E150E0F501608182EE9DE115DF61E9C4
:1008E00073E082EE9DE10FDF0F5F1F4F0F301105A8
:1008F00009F0C2CF82EE9DE10E94DF3E82EE9DE1D3
:100900000E94DF3E67E471E082EE9DE144DF7E01FC
:10091000F8E1EF0EF11C00E010E090E3C92ED12CBD
:10092000C80187709927892BB9F482EE9DE10E9456
:10093000DF3E62E471E082EE9DE1E5DE40E150E001
:10094000B60182EE9DE101DF62E473E082EE9DE19B
:10095000DADE88E0C80ED11C5701F70180818031B2
:1009600028F465E471E082EE9DE1CDDEFFEFEF1A41
:10097000FF0A40E150E0F501608182EE9DE1C4DEB6
:1009800061E973E082EE9DE1BEDE0F5F1F4F073825
:10099000110509F0C5CF82EE9DE10E94DF3E82EE97
:1009A0009DE10E94DF3E6EE571E082EE9DE1F3DEA7
:1009B000C156DF4F00E010E080E3E82EF12CC801C3
:1009C00087709927892BD1F40115110521F082EE4A
:1009D0009DE10E94DF3E62E471E082EE9DE193DEE4
:1009E00040E150E0B70182EE9DE1AFDE62E473E0EA
:1009F00082EE9DE188DEF8E0EF0EF11C6E01888149
:100A0000803128F465E471E082EE9DE17CDE219680
:100A100040E150E0F601608182EE9DE175DE61E922
:100A200073E082EE9DE16FDE0F5F1F4F0738110507
:100A300009F0C5CFDF91CF911F910F91FF90EF90FB
:100A4000DF90CF90BF90AF900895F8948091FB0411
:100A5000861791F0459A88B18D7E88B961BB42981E
:100A600084E081500000E9F788B1866188B960931D
:100A7000FB048FEF8093FA04419841BB429884E0D5
:100A800081500000E9F788B1866088B978940895AC
:100A9000F8948091FA04861791F0459888B18D7E7C
:100AA00088B961BB429884E081500000E9F788B1C1
:100AB000866188B96093FA048FEF8093FB044198B4
:100AC00041BB429884E081500000E9F788B186601C
:100AD00088B978940895F8948091F904861304C035
:100AE0008091F804821789F0222311F0459A01C001
:100AF000459888B18D7E88B961BB429884E0815069
:100B00000000E9F788B1866188B96093F904209301
:100B1000F804419841BB429884E081500000E9F715
:100B200088B1866088B978940895EF92FF920F9308
:100B30001F93CF93DF937C01EB01842F22E030E001
:100B4000C11598E0D90728F0D695C7952F5F3F4F7C
:100B5000F7CF01E0833008F400E063E00E94E64D47
:100B6000192F422F4770440F440F440F4D2B64EA56
:100B7000690F202FC701AFDF60EA610F202F4C2FD4
:100B8000C701DF91CF911F910F91FF90EF90A3CFFD
:100B9000CF92DF92EF92FF92CF93DF93DC01862F0B
:100BA0006CE00E94E64D24E0929FF0011124E35096
:100BB000FE4FC080D180E280F3801896CC910C2E3D
:100BC000000CDD0BC80FD11DCC0FDD1FCC0FDD1FBE
:100BD000CF52DE4F28EB3EE145E85DEBC701B601A1
:100BE0000E94F24FA70196010E94674E2881398129
:100BF0004A815B810E94F24FDF91CF91FF90EF908D
:100C0000DF90CF900895DC01FC01E15AFE4F80E0B7
:100C100090E0218126131CC02081211119C025E0FC
:100C2000289FF001299FF00D1124EA0FFB1FE25AC3
:100C3000FE4F108241E0833008F440E0440F440F3F
:100C400063E00E94E64D490F20E068E2CD0143CF0A
:100C50000196359686309105E1F60895EF92FF9260
:100C60000F931F93CF93DF938C01EC01C25ADE4F99
:100C70007C0184E8E81A8EEFF80A8981882339F02C
:100C80008881882321F019826A81C801BCDF2596FA
:100C9000CE15DF0591F7DF91CF911F910F91FF9056
:100CA000EF900895FC01E25AFE4F84589E4F21E0D8
:100CB0003181311103C03081311121833596E8171C
:100CC000F907B1F70895AF92BF92CF92DF92EF92FA
:100CD000FF920F931F93CF93DF93EC0170E080E0BE
:100CE00090E01F921F921F9227E02F93A12CB12C0E
:100CF00065011FE7E12EF12C00E010E020E030E07C
:100D0000A9010E946C426E83FE01E458FE4F0F90D1
:100D10000F900F900F908081882359F1462F4860E3
:100D200020E062E2CE01D7DE1F81183078F065E75F
:100D300071E082EE9DE1DF91CF911F910F91FF90C5
:100D4000EF90DF90CF90BF90AF9025CD106F04EB68
:100D500020E0412F602FCE01BEDE0F5F073BC1F7C1
:100D600004EB21E0412F602FCE01B5DE0F5F073B82
:100D7000C1F7DF91CF911F910F91FF90EF90DF901E
:100D8000CF90BF90AF9008954F925F926F927F92F5
:100D90009F92AF92BF92CF92DF92EF92FF920F930A
:100DA0001F93CF93DF9300D000D000D0CDB7DEB734
:100DB0009E838D83962E2A01FC0185E0689FE00DBD
:100DC000F11D1124E05AFE4FB0806EEF6B0D8D8146
:100DD0009E81DEDE6B017C0162E06B0D8D819E8168
:100DE000D7DE69837A838B839C835092FD04409283
:100DF000FC04C701B6010E94334F5B016C01052C56
:100E0000000C6608770869817A818B819C810E9439
:100E1000334F9F938F937F936F93E12C10E2F12ECA
:100E200000E010E020E030EE4FEF5FEFC301B201D1
:100E30000E946C420F900F900F900F90492D8D8162
:100E40009E8126960FB6F894DEBF0FBECDBFDF9110
:100E5000CF911F910F91FF90EF90DF90CF90BF90B7
:100E6000AF909F907F906F905F904F905ECE5F921B
:100E70006F927F928F929F92AF92BF92CF92DF92AA
:100E8000EF92FF920F931F93CF93DF93CDB7DEB70F
:100E9000E8970FB6F894DEBF0FBECDBF8C016C0192
:100EA00084E8C81A8EEFD80AF601908181E089277C
:100EB000808365EA71E082EE9DE125DCF6018081A8
:100EC000811103C061EA71E002C06FE872E082EE56
:100ED0009DE161DC88E3F801EA5DFE4FDE011196D9
:100EE00001900D928A95E1F7F801ED5CFE4F70805C
:100EF000399660803296B080399680803296E08054
:100F0000399690803296F0803996A080F6018081E3
:100F1000882309F44AC0F8014681486020E062E273
:100F2000C801D9DDF72DF0687F2E8B2D8068682EE3
:100F30009E2D9068A92EEF2DE0685E2EE12C92E0A8
:100F4000892E912C80E6F82EFE2DF170BF2E2F2FCA
:100F5000472D6F2DC801BFDD64E06F0D2B2D462D91
:100F6000C801B9DD68E06F0D2B2D4A2DC801B3DD36
:100F70006CE06F0D2B2D452DC801ADDDF8014781CB
:100F8000406F64E56F0D2B2DC801A5DDF394F3E6EA
:100F9000FF12DACF81E0881A9108E3949E2D9170B8
:100FA000E92E8114910479F1CDCF20E040E062E296
:100FB000C80191DDC80135DC61E070E080E090E0BF
:100FC0000E94A14A7E866F8AB98E8AA2ECA29DA653
:100FD000FFA6A8AEEDB7FEB7F8970FB6F894FEBF20
:100FE0000FBEEDBFADB7BEB7119688E3FE013196D7
:100FF00001900D928A95E1F7C80122D00FB6F894BE
:10100000DEBF0FBECDBFF6018081882311F0599A53
:1010100001C05998E8960FB6F894DEBF0FBECDBF59
:10102000DF91CF911F910F91FF90EF90DF90CF90C4
:10103000BF90AF909F908F907F906F905F9008953A
:101040005F926F927F928F929F92AF92BF92CF9258
:10105000DF92EF92FF920F931F93CF93DF93CDB761
:10106000DEB78C01DC01AA5DBE4F88E3FE017296FB
:1010700001900D928A95E1F7F801E458FE4F8080C7
:10108000882011F0C801F3DE20E040E062E2C801F0
:1010900022DD20E040E067E2C8011DDD20E040E005
:1010A00068E2C80118DD20E040E06BE2C80113DD12
:1010B000D12C912C792C770C770CF12C5BA0ACA067
:1010C00020E4A29EC0011124AE8CA82AB8A420E876
:1010D000B29EC0011124BF8CB82A68A0CAA020E12A
:1010E000C29EC0011124C9A0C82A8EA120E1829FFE
:1010F000C00111244DA1482B60E36F0D8D2D81702F
:10110000E82E282FC801E7DC60E46F0D2E2D452D59
:10111000C801E1DC60E56F0D2E2D4A2DC801DBDC36
:1011200060E66F0D2E2D4B2DC801D5DC60E76F0DED
:101130002E2D462DC801CFDC60E86F0D2E2D4C2DD5
:10114000C801C9DC60E96F0D2E2D40E0C801C3DC89
:101150005EA4AFA420E4A29EC0011124A9A4A82AE1
:10116000BBA820E8B29EC0011124BAA4B82A6BA47F
:10117000CDA420E1C29EC0011124CCA4C82A89A913
:1011800020E1829FC001112448A9482B64E36F0D20
:101190002E2DC801A0DC64E46F0D2E2D452DC80155
:1011A0009ADC64E56F0D2E2D4A2DC80194DC64E6AF
:1011B0006F0D2E2D4B2DC8018EDC64E76F0D2E2D8B
:1011C000462DC80188DC64E86F0D2E2D4C2DC8011A
:1011D00082DC64E96F0D2E2D40E0C8017CDC59AC47
:1011E000AAAC20E4A29EC0011124ACA8A82ABEACDF
:1011F00020E8B29EC0011124BDA8B82A6EA8C8ACD0
:1012000020E1C29EC0011124CFA8C82A8CAD20E1E4
:10121000829FC00111244BAD482B68E36F0D2E2D2A
:10122000C80159DC68E46F0D2E2D452DC80153DC33
:1012300068E56F0D2E2D4A2DC8014DDC68E66F0D57
:101240002E2D4B2DC80147DC68E76F0D2E2D462D46
:10125000C80141DC68E86F0D2E2D4C2DC8013BDC28
:1012600068E96F0D2E2D40E0C80135DC25965FAC96
:1012700025972696AFAC269720E4A29EC0011124A4
:10128000AFACA82A2A96BFAC2A9720E8B29EC0012C
:1012900011242196BFAC2197B82A22966FAC2297D1
:1012A0002496CFAC249720E1C29EC001112423963E
:1012B000CFAC2397C82A28968FAD289720E1829F2C
:1012C000C001112427964FAD2797482B6CE36F0D73
:1012D0002E2DC80100DC6CE46F0D2E2D452DC801AC
:1012E000FADB6CE56F0D2E2D4A2DC801F4DB6CE6A0
:1012F0006F0D2E2D4B2DC801EEDB6CE76F0D2E2DE3
:10130000462DC801E8DB6CE86F0D2E2D4C2DC80171
:10131000E2DB6CE96F0D2E2D40E0C801DCDB888D2F
:1013200028E0829FC0011124498D482B60EB6F0D8E
:101330002E2DC801D0DB64EB6F0D2E2D40ECC801C3
:10134000CADB472D4F0D20E068E2C801C4DBF394EF
:1013500083E0F812B3CE9394D3942D2D2170D22E26
:1013600082E09812A7CE882089F0C801DF91CF9142
:101370001F910F91FF90EF90DF90CF90BF90AF90B3
:101380009F908F907F906F905F9071CDDF91CF9104
:101390001F910F91FF90EF90DF90CF90BF90AF9093
:1013A0009F908F907F906F905F900895FC01608771
:1013B0000895FC0180850895CF93DF93FC0120857B
:1013C0002530A1F0EC012F5F20876BEA71E082EEFF
:1013D0009DE199D94885042E000C550B660B770BBF
:1013E00082EE9DE1DF91CF910C94653FDF91CF912B
:1013F0000895CF93DF93FC0120852B3FA1F0EC01F2
:10140000215020876DEB71E082EE9DE17CD948850B
:10141000042E000C550B660B770B82EE9DE1DF91DD
:10142000CF910C94653FDF91CF91089580E090E0DB
:101430000895FC01808583FF0DC080A191A1A2A128
:10144000B3A1408D518D628D738D841B950BA60BBE
:10145000B70B03C080E090E0DC01811520E8920723
:10146000A105B10520F08FEF9FE7A0E0B0E008955F
:1014700028EE33E03093050520930405E0910C0538
:10148000F0910D05E25FFA4F808380910C059091F9
:101490000D050196937090930D0580930C05E091D6
:1014A0000C05F0910D05E25FFA4F608380910C0509
:1014B00090910D050196937090930D0580930C0506
:1014C00080910805909109050296909309058093F3
:1014D0000805089508960C941A2DCF93DF931F9258
:1014E000CDB7DEB7698341E050E0BE016F5F7F4F4B
:1014F00008960E941A2D0F90DF91CF9108950896BB
:101500000C94EA2BCF93DF931F92CDB7DEB741E067
:1015100050E0BE016F5F7F4F08960E94BB26019787
:1015200019F4898190E002C08FEF9FEF0F90DF9157
:10153000CF91089508960C942A2C8091030188235A
:1015400019F01092020108958091DB0D8F5F63E026
:101550000E94E64D9093DB0D81E08093C30D0895CA
:1015600090910301992391F128EE33E03093050522
:10157000209304058150E0910C05F0910D05E25F88
:10158000FA4F440F982F9170492B408320910C05FE
:1015900030910D052F5F3F4F337030930D05209331
:1015A0000C05E0910C05F0910D05E25FFA4F869570
:1015B0008170660F862B808380910C0590910D05BC
:1015C0000196937090930D0580930C0508950F93E9
:1015D0001F93CF939091030191111CC08B01982F01
:1015E0009D7F913051F4C0E0A8016C2F8FE19CE009
:1015F000CBDBCF5FC630C1F70DC0823011F0843035
:1016000049F4C0E0A8016C2F8CE99DE00CD8CF5FB5
:10161000C330C1F7CF911F910F91089590910301AD
:10162000911133C0613079F4982F9D7F913021F46E
:10163000642F8FE19CE047CB853039F561E08CE980
:101640009DE00C941402603401F5982F9D7F913039
:1016500061F481E0403408F480E08093F7048FE186
:101660009CE0403408F01ECBF9CA823011F084307F
:1016700061F481E0403408F480E08093F6048CE962
:101680009DE0403408F022C800C80895CF92DF9250
:10169000EF92FF920F931F93CF93DF93EB017B01A8
:1016A00020E5E20EF11C8B016C01C61AD70AC601B7
:1016B000800F911F0E947153F80181938F01EE15E5
:1016C000FF05A9F7CE01DF91CF911F910F91FF90F8
:1016D000EF90DF90CF900895462F50E060E070E0EB
:1016E00020E00C94F93EAB01770F660B770B0C945E
:1016F000653F0F931F93CF93DF93EC01F4DF8C01D1
:10170000CE010E94DF3E800F911FDF91CF911F918C
:101710000F91089540E050E0BA010C94EA28FC01D2
:1017200010861186128288EE93E0A0E0B0E08383F9
:101730009483A583B683178280E694E091838083A7
:101740000895DC01ED91FD918081ED91FD919081F5
:10175000ED91FD916C9163708E2309F064609F237D
:1017600009F06860EEEBFBE0E60FF11D659565950D
:101770006D936D917D918D919D91099423C01AC0B7
:1017800012C016C010C01EC009C014C013C006C0CD
:1017900019C009C00DC007C00DC014C06250704010
:1017A000804090400BC0615070408040904006C027
:1017B0006E5F01C06F5F7F4F8F4F9F4F9E938E93E1
:1017C0007E936E9308958091501D9091511DB9CFD5
:1017D00080914E1D90914F1DB4CF80914C1D9091E2
:1017E0004D1DAFCF80914A1D90914B1DAACF809186
:1017F000481D9091491DA5CF8091461D9091471D90
:10180000A0CF8091441D9091451D9BCF8091421D9A
:101810009091431D96CF8330D9F160F4813031F13E
:1018200070F57093431D6093421D41E066E07CE0DB
:1018300080E048C08331F1F160F4823109F046C0A4
:1018400070934F1D60934E1D41E068EE7BE086E093
:1018500039C0843231F18532C9F570934D1D6093E2
:101860004C1D41E06DEE7BE085E02CC07093451D82
:101870006093441D41E061E07CE081E023C070930F
:10188000471D6093461D41E06CEF7BE082E01AC08B
:101890007093491D6093481D41E067EF7BE083E052
:1018A00011C070934B1D60934A1D41E062EF7BE0D5
:1018B00084E008C07093511D6093501D41E063EEB9
:1018C0007BE087E00E94A54081E0089580E00895D4
:1018D0000F931F93CF93DF93EC01062F142F862FC6
:1018E0000E941649812F0E941649802F90E0880F90
:1018F000991FFC01E958FE4FE491AE2FB0E0B98387
:10190000A883FC01EA58FE4F24912C83812F90E09C
:10191000880F991FFC01E958FE4FE4914E2F50E0CB
:101920005B834A83FC01EA58FE4F84918D831F82BA
:10193000188619861A86E0E4FFE13197F1F7EC91F9
:10194000E22391E009F490E0DA01EC91E82309F058
:1019500092609E83BE01802F5EDF8B87BE01812F48
:101960005ADF9B85890F8B87DF91CF911F910F9154
:1019700008951F920F920FB60F9211242F933F9349
:101980008F93209108053091090580910705213337
:10199000310508F08C5F8093B20081E080930605EA
:1019A0008F913F912F910F900FBE0F901F90189520
:1019B000CF93DF93EC01909306018093050143E000
:1019C00060E084EC9DE00E94FF3B6DE272E084ECFD
:1019D0009DE00E948303BE0184EC9DE084DE65E30C
:1019E00072E084EC9DE00E948303BE01DD0F880B52
:1019F000990B0E94664F9B01AC0160E074E284EF9A
:101A000099E40E94CB4E9B01AC0160E070E08FE74F
:101A100093E40E94664E20E030E040E050E40E94F3
:101A2000674E0E94384F60930705DF91CF9108956C
:101A300084EC9DE00E94F13B84EC9DE00E94F83B29
:101A400040E060E084EC9DE00E94FF3B68E372E0D0
:101A500084EC9DE00E94830341E060E084EC9DE023
:101A60000E94FF3B69E472E084EC9DE00E948303E6
:101A700042E060E084EC9DE00E94FF3B6CE572E098
:101A800084EC9DE00E948303E0910801F0E0EE0FFA
:101A9000FF1FE75FFE4F808191818ACFCF939091A6
:101AA0000301992309F44DC0823021F54A30F0F446
:101AB000C42F8CE99DE00E94E801CC2309F45AC0B0
:101AC000C13019F4C0931C0955C0C23019F41092EA
:101AD0001C0950C0C33021F481E080931D094AC025
:101AE000C43009F047C010921D0944C0609308013A
:101AF000CF919ECF813029F48FE19CE0CF910C945F
:101B00002505811137C06832B9F4842F877083307E
:101B100038F08150853021F41092050510920405AB
:101B200090E0242F207FFC01EA5EF64F222319F07B
:101B300021E0208301C010828FE19CE0CF910C94C2
:101B40004805982F9D7F913029F46D5F8FE19CE0CF
:101B5000CF9159C8823011F0843029F48CE99DE08E
:101B6000CF910C944403853029F48CE99DE0CF910A
:101B70000C945A02CF910895AF92BF92DF92EF92E8
:101B8000FF920F931F93CF93DF93CDB7DEB7C0556E
:101B9000D1090FB6F894DEBF0FBECDBFCC56DF4FD4
:101BA000E880F980C459D04088E0E816F10408F0D4
:101BB0003FC088E3FE01E45AFF4FDE011196019019
:101BC0000D928A95E1F7E9AE44E150E067E279E0F1
:101BD000CE01CA960E941C532F961FAE2F9780915C
:101BE000C81C60968FAF60978FE19CE0E2DB619646
:101BF0008FAF619780E58E9D80018F9D100D112420
:101C0000FE0131967F015801F0E5AF0EB11CF701DE
:101C1000D1907F01C8010E947153D81621F06D2D1B
:101C2000C8010E9479530F5F1F4F0A151B0579F7F2
:101C3000C05BDF4F0FB6F894DEBF0FBECDBFDF91A4
:101C4000CF911F910F91FF90EF90DF90BF90AF90D9
:101C50000895EF92FF920F931F93CF93DF93C6E8FF
:101C6000D4E00EE814E07E01D701ED917D01F0E0B3
:101C70000E94424964E670E080E090E00E94A14A40
:101C8000BEE8EB16B4E0FB0679F7E991F0E00E94BC
:101C9000484964E670E080E090E00E94A14A0C1799
:101CA0001D0799F7DF91CF911F910F91FF90EF9052
:101CB0000895BF92CF92DF92EF92FF920F931F93FE
:101CC000CF93DF9310920D0510920C0510920B0527
:101CD00010920A058AE48093B2001092B0008091BD
:101CE000B100887F82608093B10081E080937000B2
:101CF000259A3E9A90E49093800089E08093810039
:101D00001092890010928800909390008093910027
:101D100081E090E0909399008093980040E052EC2D
:101D200061E070E082EE9DE10E94184D46E754E0CC
:101D300060E084EC9DE00E94D73C4EE754E061E017
:101D400084EC9DE00E94D73C4EE654E062E084ECD7
:101D50009DE00E94D73C20E044E064E184EC9DE0FB
:101D60000E94183C6FE672E084EC9DE00E948303C1
:101D700041E060E084EC9DE00E94FF3B6FE772E091
:101D800084EC9DE00E94830342E060E084EC9DE0EF
:101D90000E94FF3B62E972E084EC9DE00E948303B5
:101DA00043E060E084EC9DE00E94FF3B64EA72E067
:101DB00084EC9DE00E9483036FEA72E084EC9DE076
:101DC0000E948303E0911F0EF091200E4FEF60E41C
:101DD00070E0808191810E949A3D1092210E1092B4
:101DE000230E1092220E10922A0E1092290E10929B
:101DF000280E1092270E8FEF9FEF90932C0E80935A
:101E00002B0E90932E0E80932D0E0FB6F89480918A
:101E1000DA1D9091DB1DA091DC1DB091DD1D0FBE80
:101E20008093B70E9093B80EA093B90EB093BA0EEC
:101E30001092B40E1092310E1092300E1092320E9B
:101E40001092330E1092B60E1092B50E80912F0E96
:101E500081708260816080932F0E64E170E080E089
:101E600090E00E94A14A8CE99DE00E94F3018FE17D
:101E70009CE00E94110488E39AE090930C1D8093EB
:101E80000B1DE0EBFAE0F093101DE0930F1D6EE4E4
:101E90007DE070930E1D60930D1D42ED5BE150934C
:101EA000161D4093151D27EE3AE030931A1D20931E
:101EB000191D8EE09BE09093141D8093131DF093E9
:101EC000FC0DE093FB0D7093FA0D6093F90D5093A8
:101ED000020E4093010E3093060E2093050E909350
:101EE000000E8093FF0D689A55985D9A56985E9AF9
:101EF00057985F9A5098589A6D98759810922F0E2F
:101F00008091C900877F8093C90011B88FEF82B993
:101F1000C6E8D4E086E1E82E89E0F82E0EE019E06C
:101F20009EE8C92E94E0D92EB9908B2D0E940549C8
:101F3000EB2DF0E00E944849F70111927F01F80172
:101F400011928F01CC16DD0679F783DE71DD42E058
:101F50006DE97AE080E0DF91CF911F910F91FF90C2
:101F6000EF90DF90CF90BF900C94A54084EC9DE063
:101F70000E94F13B84EC9DE00E94F83B66EB72E02E
:101F800084EC9DE00E94830341E060E084EC9DE0EE
:101F90000E94FF3B6EEB72E084EC9DE00E948303A5
:101FA000A6E8B4E080E090E0EC91F0E080FD03C0B2
:101FB0000E94424902C00E94484901961196883009
:101FC000910591F7FFCFEF92FF920F931F93CF935D
:101FD000DF93CDB7DEB7AF970FB6F894DEBF0FBE75
:101FE000CDBFCE0101969BDB07E219E080E8F82E19
:101FF00041E066EF7BE0CE0109960E94792A8823B2
:1020000009F44FC0F8018F2D11928A95E9F740E845
:1020100050E067E279E0CE0109960E943E2F809160
:1020200027098E32D1F467E279E086EF9BE00E94C7
:10203000FA2C811112C0CE0109960E94462B811103
:102040000CC06CEC72E082EE9DE10E94830367E2BB
:1020500079E082EE9DE10E94CB0367E279E0CE0158
:1020600089960E94134367EE72E0CE0189960E9422
:102070001944E82ECE0189960E94AD42EE2061F00F
:10208000CE0109960E94462B811106C061E073E0E3
:1020900082EE9DE10E94CB03CE0109960E947A2C2C
:1020A000A7CFCE0109960E947A2C86EF9BE032DB07
:1020B000AF960FB6F894DEBF0FBECDBFDF91CF91C4
:1020C0001F910F91FF90EF9008958FE19CE00E9487
:1020D00011048CE99DE00E94F301E091C81C88E3A3
:1020E000E89FF0011124E953F14F8DB79EB7C897CF
:1020F0000FB6F8949EBF0FBE8DBFADB7BEB7119699
:1021000088E301900D928A95E1F78FE19CE00E94AF
:1021100020088DB79EB7C8960FB6F8949EBF0FBE25
:102120008DBF66E173E082EE9DE10C94CB038F924C
:102130009F92AF92BF92CF92DF92EF92FF920F9356
:102140001F93CF93DF93CDB7DEB7C559D1090FB633
:10215000F894DEBF0FBECDBF10E07E0123E4E20E97
:10216000F11C20E030E04CE350E0B7018FEA99E049
:102170000E943B28892B09F403C2B701CE01835783
:102180009F4F0E94134367E273E0CE0181589F4F37
:102190000E941343BE0161587F4FCE0183579F4F6A
:1021A0000E945E44082FCE0181589F4F0E94AD428D
:1021B0000111D8C1612FCE018A579F4F0E94314330
:1021C0006AE273E0CE0181589F4F0E941343BE0123
:1021D0006A577F4FCE0181589F4F0E94B9436DE2ED
:1021E00073E00E94C643BC01CE0183579F4F0E94FB
:1021F0005E44082FCE0181589F4F0E94AD42CE0110
:102200008A579F4F0E94AD42002321F01093C71CB4
:1022100001E0AFC1612FCE018A579F4F0E94314329
:102220006AE273E0CE0181589F4F0E941343BE01C2
:102230006A577F4FCE0181589F4F0E94B943BC011E
:10224000CE0183579F4F0E945E44082FCE018158D4
:102250009F4F0E94AD42CE018A579F4F0E94AD42D0
:10226000002309F47DC1CE0101964C016C0120E0F0
:1022700030E04CE350E0B7018FEA99E00E943B2840
:10228000B701CE0183579F4F0E946B4362E973E011
:10229000CE0181589F4F0E94134365EA71E0CE0141
:1022A0008A579F4F0E941343AE0141585F4FBE01B2
:1022B0006A577F4FCE0183579F4F0E943045CE0112
:1022C0008A579F4F0E94AD42CE0181589F4F0E9476
:1022D000AD4262E973E0CE0181589F4F0E941343E3
:1022E00066E373E0CE018A579F4F0E941343AE010D
:1022F00041585F4FBE016A577F4FCE0183579F4FB2
:102300000E943045CE018A579F4F0E94AD42CE01B8
:1023100081589F4F0E94AD4262E973E0CE0181581F
:102320009F4F0E9413436BE373E0CE018A579F4F88
:102330000E941343AE0141585F4FBE016A577F4F61
:10234000CE0183579F4F0E943045CE018A579F4F41
:102350000E94AD42CE0181589F4F0E94AD4262E97A
:1023600073E0CE0181589F4F0E94134360E473E0F5
:10237000CE018A579F4F0E941343AE0141585F4FD1
:10238000BE016A577F4FCE0183579F4F0E94304551
:10239000CE018A579F4F0E94AD42CE0181589F4F78
:1023A0000E94AD4262E973E0CE0181589F4F0E94C6
:1023B000134365E473E0CE018A579F4F0E94134395
:1023C000AE0141585F4FBE016A577F4FCE01835720
:1023D0009F4F0E943045CE018A579F4F0E94AD42C9
:1023E000CE0181589F4F0E94AD4262E973E0CE0159
:1023F00081589F4F0E9413436AE473E0CE018A57CD
:102400009F4F0E941343AE0141585F4FBE016A5770
:102410007F4FCE0183579F4F0E943045CE018A5790
:102420009F4F0E94AD42CE0181589F4F0E94AD4206
:1024300020E030E04CE350E0B701CE0183579F4FDE
:102440000E946C444AE050E0BE016C567F4FC701C9
:102450000E94BA51F6016083AA24A394B12C4AE0E9
:1024600050E0BE016C567F4FCC56DF4F888199817A
:10247000C459D0400E94BA51F601EA0DFB1D608399
:10248000FFEFAF1ABF0A2BE0A216B10441F78BE0B1
:10249000C80ED11CCE14DF0409F0E9CEE8E31E9F7C
:1024A000C001112420E030E0F40141914F01F90115
:1024B000E80FF91FE953F14F40832F5F3F4F25305D
:1024C000310591F7FE013C968953914F20E030E0B1
:1024D0004191DC01A20FB31F15964C932F5F3F4F24
:1024E00027303105A9F7FE01779620E030E04191D1
:1024F000DC01A20FB31F1C964C932F5F3F4F2B3074
:102500003105A9F7FE01B29620E030E04191DC01EF
:10251000A20FB31F57964C932F5F3F4F2B303105BF
:10252000A9F7FE01BD9620E030E04191DC01A20F49
:10253000B31F92964C932F5F3F4F2B303105A9F775
:10254000FE01F89620E030E04191DC01A20FB31FBC
:102550009D964C932F5F3F4F2B303105A9F71F5F9E
:102560001F3331F0CE0183579F4F0E94AD42F9CD0A
:1025700000E0CE0183579F4F0E94AD42011102C07F
:102580001093C71C111105C010921E096FE473E06F
:1025900005C081E080931E096FE573E082EE9DE146
:1025A0000E94CB03CB56DF4F0FB6F894DEBF0FBEB1
:1025B000CDBFDF91CF911F910F91FF90EF90DF90F2
:1025C000CF90BF90AF909F908F900895EF92FF9221
:1025D0000F931F93CF93DF93CDB7DEB765EA71E01A
:1025E00082EE9DE10E948303CE0109967C018E015B
:1025F000025F1F4FF70161917F0182EE9DE16CD870
:1026000061E973E082EE9DE10E948303E016F1062A
:1026100089F782EE9DE10E94DF3E66E373E082EE81
:102620009DE10E9483037E01F5E1EF0EF11CF801AC
:1026300061918F0182EE9DE14FD861E973E082EEF6
:102640009DE10E9483030E151F0589F782EE9DE12F
:102650000E94DF3E6BE373E082EE9DE10E94830304
:102660008E01005E1F4FF70161917F0182EE9DE1B7
:1026700033D861E973E082EE9DE10E948303E016A6
:10268000F10689F782EE9DE10E94DF3E60E473E08F
:1026900082EE9DE10E9483037E01FBE2EF0EF11CBE
:1026A000F80161918F0182EE9DE116D861E973E036
:1026B00082EE9DE10E9483030E151F0589F782EECD
:1026C0009DE10E94DF3E65E473E082EE9DE10E94A1
:1026D00083038E010A5C1F4FF70161917F0182EE37
:1026E0009DE10E946C0B61E973E082EE9DE10E9426
:1026F00083030E151F0581F782EE9DE10E94DF3EE8
:102700006AE473E082EE9DE10E9483037E01F1E4BE
:10271000EF0EF11CF80161918F0182EE9DE10E94A4
:102720006C0B61E973E082EE9DE10E948303E01689
:10273000F10681F782EE9DE10E94DF3EDF91CF91AD
:102740001F910F91FF90EF900895CF938091080112
:10275000209108053091090590E0019645E0880F29
:10276000991F4A95E1F78217930720F481E080933F
:10277000030508C08091080590910905089710F499
:1027800010920305C0910305CC2381F1C091060589
:10279000CC2361F11092060520910A0530910B05BA
:1027A00080910C0590910D0528173907F9F0E091FB
:1027B0000A05F0910B05E25FFA4F40816AE28FE172
:1027C0009CE00E94480580910A0590910B050196B6
:1027D000937090930B0580930A0580910805909162
:1027E0000905019790930905809308058C2FCF91D7
:1027F0000895FC01EA57FB4F06978CF42BB181E05A
:1028000090E0008002C0880F991F0A94E2F76623C7
:1028100011F0822B02C0809582238BB90895662324
:1028200059F035B12081245181E090E001C0880F3A
:102830002A95EAF7832B0BC025B13081345181E012
:1028400090E001C0880F3A95EAF78095822385B918
:102850000895CF92DF92EF92FF920F931F93CF9341
:10286000DF938091F40D823030F4F89489EE9DE08E
:102870000E94A10B01C0F894C090F00DD090F10D12
:10288000E090F20DF090F30D78948091E50D909129
:10289000E60DA091E70DB091E80D8C159D05AE05F4
:1028A000BF0519F1B701A6014370552766277727A1
:1028B000452B462B472BC9F48C159D05AE05BF054E
:1028C00024F481E08093040110C0109204010EE012
:1028D00019E0C0E0D0E060E0CE018BDFF80111929A
:1028E0008F012196C830D105B1F7C092E50DD09285
:1028F000E60DE092E70DF092E80DDF91CF911F9188
:102900000F91FF90EF90DF90CF900895E3E0F0E01B
:102910000E944849E4E0F0E00E944849E5E0F0E028
:102920000E944849E6E0F0E00E944849E7E0F0E014
:102930000E944849E8E1F0E00E944849EBE1F0E0FC
:102940000E944849E0911101E83038F4F0E0EA577C
:10295000FB4FE081F0E00C94424908950F931F93E0
:10296000CF93DF938830E8F404E010E0E82FF0E044
:10297000EA57FB4FC081D0E0FE010E94424964E665
:1029800070E080E090E00E94A14AFE010E94484968
:1029900064E670E080E090E00E94A14A01501109D5
:1029A00059F7DF91CF911F910F910895CF93DF9346
:1029B000EC01E881F981309711F0CB9609958CAD47
:1029C000823F09F493C050F5803C09F476C098F436
:1029D000803909F443C030F4803809F0A4C0EC8198
:1029E000FD8163C0803A09F45EC0803B09F09BC062
:1029F000EA85FB855AC0803E09F442C030F4803D30
:102A000009F091C0EE85FF855AC0803F09F45EC091
:102A1000813F09F088C0EC89FD8978C08A3F21F1A7
:102A200090F4863F09F478C030F4833F09F07BC00E
:102A3000E88DF98D6BC0883FA1F0893F09F073C024
:102A4000E8A1F9A16BC08C3FA9F088F08E3FA9F0F6
:102A50008F3F09F068C0E8A5F9A560C0EE81FF814D
:102A600024C0EC8DFD8D5AC0EE8DFF8D57C0EAA1BC
:102A7000FBA154C0ECA1FDA151C0EEA1FFA14EC02D
:102A8000E889F989309709F44EC06EAD6F7720E878
:102A9000629FB00111248DAD8F77682B70528BAD82
:102AA000DF91CF910994E885F9853097E1F14EAD3A
:102AB0006DAD8BADDF91CF910994EC85FD8530979D
:102AC00091F16DAD8BADDF91CF910994EA89FB89CE
:102AD000309749F16DAD7EAD6138710510F060E859
:102AE00070E0CE01CF96DF91CF910994EE89FF89F6
:102AF0003097C9F08EAD8F7720E8829FC0011124F6
:102B00002DAD2F77822BDF91CF910994309759F01B
:102B10008DADDF91CF910994EA8DFB8D309719F03F
:102B2000DF91CF910994DF91CF910895982F8F7CF9
:102B3000803849F0903D39F081E0903E31F0903C92
:102B400021F080E0089581E00895089587FF0AC08C
:102B50009CE0980F923030F08D3F21F0803F18F4C8
:102B6000807F089580E00895DC018D919C91DC01C7
:102B7000ED91FC910190F081E02D09946D3F28F4D6
:102B80006A3F28F4683F39F402C06E3F20F0FC0130
:102B900080819181E9CF0895EF92FF920F931F9367
:102BA000CF93DF93613E28F50150003160F567FF58
:102BB0002AC0D22F142FC62F7C01602F6C2BFC0152
:102BC00082A593A5D1DF612F6F77F70182A593A529
:102BD000CBDF6C2F6F7E603CB1F06D2F6F77F7010C
:102BE00082A593A5DF91CF911F910F91FF90EF9058
:102BF000BBCF683F40F08A96DF91CF911F910F9134
:102C0000FF90EF90BBCFDF91CF911F910F91FF907D
:102C1000EF900895EF92FF920F931F93CF93DF935E
:102C2000EC019AAD292F217090FF88C0892F8E7FEB
:102C300009F484C0362F6CAD80E8860F8136D0F45D
:102C40000BAD031719F021E0311120E09695923079
:102C500031F0933041F0913009F070C006C022236A
:102C600009F46CC002C0211169C02EAD4DADCE017A
:102C700093DF64C0862F90E0FC01E05FF109E03152
:102C8000F10508F05BC0E75AFF4F0C94444ECE01AB
:102C90008A96DF91CF911F910F91FF90EF906ECFA9
:102CA0008E01015C1F4F78018DAD9EAD813891057D
:102CB00010F080E890E0080F191F0E151F0509F4A9
:102CC0003DC0F70161917F018AA59BA54DDFF5CF3E
:102CD0001DAD63EF8AA59BA547DF612F16C00EAD22
:102CE000F0E80F9F800111248DAD082B62EF8AA5BB
:102CF0009BA53ADF602F6F778AA59BA535DF000F74
:102D0000012F001F110B1195602F6F770EC08DAD35
:102D1000877020E1829FC00111241EAD1F70182B07
:102D200061EF8AA59BA520DF612F8AA59BA5DF9176
:102D3000CF911F910F91FF90EF9016CFDF91CF9120
:102D40001F910F91FF90EF9008958F92AF92CF92C5
:102D5000EF920F9382E59DE19093C60E8093C50E8E
:102D6000E5EFFDE011821082138212821582148237
:102D7000178216821186108613861286158614868F
:102D800017861686118A108A138A128A158A148A5F
:102D9000178A168A118E108E138E128E158E148E2F
:102DA000178E168E11A210A213A212A215A214A29F
:102DB00017A216A211A610A685EC9EE093A782A7E3
:102DC00014A615A616A613AA12AA15AA14AA8FEF5E
:102DD0009FEF97AB86AB91AF80AF83E080932F0ED0
:102DE00013AE14AE15AE16AE1092B40E80E8E4E346
:102DF000FEE0DF011D928A95E9F71092B70E10925E
:102E0000B80E1092B90E1092BA0E1092BB0E10921C
:102E1000BC0E1092BD0E1092BE0E1092BF0E1092FC
:102E2000C00E1092C10E1092C20E1092C30E1092DC
:102E3000C40E43E162E189EE9DE00E94680C60E00F
:102E400070E08CED9DE00E9413438DE28F938CE245
:102E50008F938BE2882E9AE2A92E29E2C22E38E2C5
:102E6000E32E07E226E24AE161E184EC9DE00E9464
:102E7000AC3C8CE99DE00E949E018FE19CE00E94A9
:102E8000DC031092D4091092F60B1092F70B84E633
:102E90008093160C10921B0C80E580931C0C1092F2
:102EA0001D0C0F900F9087EA99E00F91EF90CF9053
:102EB000AF908F900C948F0B8CED9DE00C94AD42F5
:102EC0001F93CF93DF93CDB7DEB7C755D1090FB6A8
:102ED000F894DEBF0FBECDBF182F84EC9DE00E949A
:102EE000F13B84EC9DE00E94F83B1093DB0D412FF9
:102EF00060E084EC9DE00E94FF3B61E973E084ECBC
:102F00009DE00E9483034091DB0D4230B8F460E005
:102F100084EC9DE00E94FF3B61E973E084EC9DE05E
:102F20000E9483034091DB0D60E084EC9DE00E94F1
:102F3000FF3B60E084EC9DE00E94FE3C40E061E0ED
:102F400084EC9DE00E94FF3B67E279E0CE018F5A5E
:102F50009F4F0E94134363E170E0CE018F5A9F4F51
:102F60000E941846BC01CE018F5A9F4F0E945843C1
:102F700067E279E08CED9DE00E946B43BE016F5AE1
:102F80007F4F84EC9DE00E94893E41E061E084EC4B
:102F90009DE00E94FF3B80911E098823F1F067E7C6
:102FA00073E084EC9DE00E9483036091C81C84EC74
:102FB0009DE00E946C0B68E273E084EC9DE00E944F
:102FC00083036091C71C70E06150710984EC9DE03F
:102FD0000E94730B60E973E002C06FE773E084EC5A
:102FE0009DE00E94830341E06FE084EC9DE00E943D
:102FF000FF3B69E873E084EC9DE00E9483038FE16E
:103000009CE00E94D909182F87FD06C06DE873E087
:1030100084EC9DE00E948303612F110F770B84ECF9
:103020009DE00E94730B8091DB0D8230B9F441E08A
:103030006EE084EC9DE00E94FF3B61E973E084EC6C
:103040009DE00E94830341E06EE084EC9DE00E94DD
:10305000FF3B60E084EC9DE00E94FE3C809111010A
:10306000883008F042C09FEF99AF60961FAE60971E
:1030700061961FAE6197BE016F5F7F4F20E5829F13
:10308000C00111240E94460B42E060E084EC9DE008
:103090000E94FF3BBE01665C7F4F84EC9DE00E9476
:1030A000830343E060E084EC9DE00E94FF3B67E720
:1030B00073E084EC9DE00E94830360966FAD60979F
:1030C00084EC9DE00E946C0B6FE873E084EC9DE063
:1030D0000E94830362E084EC9DE00E94FE3C6091CC
:1030E000110184EC9DE00E946C0BCE018F5A9F4F22
:1030F0000E94AD42C95ADF4F0FB6F894DEBF0FBE33
:10310000CDBFDF91CF911F910895CF92DF92EF92C3
:10311000FF921F93CF93DF93CDB7DEB7C055D10990
:103120000FB6F894DEBF0FBECDBF182FCE01899623
:103130000E948F0B80E8E7E2F9E0DF011D928A959B
:10314000E9F7113009F45FC020F0123009F490C0A3
:1031500010C1CE0101960E948F0B41E066EF7BE02B
:10316000CE0109960E94792A8823C1F0CE010996E2
:103170000E947A2C8091230990912409A09125091D
:10318000B09126090196A11DB11D8093230990934A
:103190002409A0932509B0932609DFCFCE01099613
:1031A0000E947A2C86EF9BE00E948A0B8091AF09E7
:1031B000882321F08FEA99E00E947A2C41E066EFA3
:1031C0007BE08FEA99E00E94792A8091AF09811112
:1031D00003C063E973E003C140E850E067E279E0CF
:1031E0008FEA99E00E943E2F67E279E082EE9DE14E
:1031F0000E94CB0310921F091092200910922109FE
:103200001092220911C180911F0990912009A0916B
:103210002109B09122090196A11DB11D40912309F8
:10322000509124096091250970912609841795070A
:10323000A607B70768F086EF9BE00E948A0B109202
:103240001F0910922009109221091092220908C02A
:1032500080931F0990932009A0932109B09322091C
:1032600041E066EF7BE0CE01C1960E94792A3CC026
:1032700080911F0990912009A0912109B091220904
:103280000097A105B105E9F10197A109B109809362
:103290001F0990932009A0932109B093220986EF7A
:1032A0009BE00E948A0BC12CD12C760180911F09D2
:1032B00090912009A0912109B09122098C159D05BA
:1032C000AE05BF0588F0CE01C1960E947A2C41E080
:1032D00066EF7BE0CE01C1960E94792ABFEFCB1A40
:1032E000DB0AEB0AFB0AE2CF40E850E067E279E054
:1032F000CE01C1960E943E2FCE01C1960E947A2C2B
:1033000038C08091230990912409A0912509B0919A
:1033100026090197A109B10980931F0990932009FB
:10332000A0932109B093220986EF9BE00E948A0BAB
:10333000C12CD12C760180911F0990912009A09178
:103340002109B09122098C159D05AE05BF0560F2DB
:10335000CE01C1960E947A2C41E066EF7BE0CE015F
:10336000C1960E94792A8FEFC81AD80AE80AF80A8B
:10337000E2CF8091AF09882321F08FEA99E00E9483
:103380007A2CCE0101960E948F0B21E047E259E092
:1033900066EF7BE0CE0109960E94822C80E2FE015E
:1033A0003996AFEAB9E001900D928A95E1F78B81E9
:1033B0008093A9098C819D81AE81BF818093AA09E8
:1033C0009093AB09A093AC09B093AD098885809325
:1033D000AE098091AF09811108C065EA73E082EE01
:1033E0009DE10E94CB030E94B60F0E949710ADB7DB
:1033F000BEB7D8970FB6F894BEBF0FBEADBF11963B
:1034000088E3E7ECFEE001900D928A95E1F78FE109
:103410009CE00E9420081092C81C0FB6F894DEBFF2
:103420000FBECDBF80E04CDD81E0C05BDF4F0FB64B
:10343000F894DEBF0FBECDBFDF91CF911F91FF90FB
:10344000EF90DF90CF90089520E530E044E16CE10B
:103450007CE086E19CE00E946539882309F470C015
:1034600086E19CE09093D0098093CF0986EF9BE0A2
:103470000E947A2C61E08FEC99E00E942637882325
:1034800051F06FEC79E086EF9BE00E94A126882343
:1034900009F456C008C060E08FEC99E00E9426371E
:1034A0008111EFCF4DC08091F60B807709F448C0B1
:1034B00086EF9BE09093411D8093401D0E94E30F97
:1034C00080E023DE0E9497108DB79EB7C8970FB695
:1034D000F8949EBF0FBE8DBFADB7BEB7119688E3FF
:1034E000E7ECFEE001900D928A95E1F78FE19CE018
:1034F0000E9420088DB79EB7C8960FB6F8949EBF5D
:103500000FBE8DBFC8970FB6F8949EBF0FBE8DBF7C
:10351000ADB7BEB7119688E3E7ECFEE001900D92DF
:103520008A95E1F753D88DB79EB7C8960FB6F89431
:103530009EBF0FBE8DBF80E0C3DC109203010895D3
:1035400069EB73E082EE9DE10E94CB030E94B60F0F
:10355000AF92BF92CF92DF92EF92FF920F931F93A1
:10356000CF93DF93CDB7DEB7C05DD1090FB6F89426
:10357000DEBF0FBECDBF8C0186EF9BE00E948A0BA1
:103580006AEC73E082EE9DE10E948303B80182EE53
:103590009DE10E94893E82EE9DE10E94DF3ECE01C8
:1035A00087559F4F0E948F0BC12CD12C760189EA41
:1035B000A82EB12CAC0EBD1E88E0A80EB11C8091C7
:1035C000230990912409A0912509B0912609C816D4
:1035D000D906EA06FB0608F043C0C5010E947A2C12
:1035E00041E066EF7BE0C5010E94792A40E850E0A7
:1035F000BE016F5F7F4FC5010E943E2FBE016F5F0E
:103600007F4FCE018F579F4F0E941343CE018F579C
:103610009F4F0E945846C8010E945846B801CE01EB
:103620008F579F4F0E940944882379F0C0921F0949
:10363000D0922009E0922109F0922209CE018F5701
:103640009F4F0E94AD4211E00CC0CE018F579F4F9B
:103650000E94AD429FEFC91AD90AE90AF90AAFCF11
:1036600010E089EA90E08C0F9D1F08960E947A2C4A
:10367000111108C064ED73E082EE9DE10E94CB035E
:1036800080E07EC080E8E7E2F9E0DF011D928A95E4
:10369000E9F740E850E0BE016F5F7F4FCF010E9425
:1036A0001C538091AF09882321F08FEA99E00E9492
:1036B0007A2CCE018F579F4F0E948F0B01E810E0AC
:1036C0000C0F1D1F085F1F4F21E047E259E066EF16
:1036D0007BE0C8010E94822C80E2F801AFEAB9E0E9
:1036E00001900D928A95E1F7CD57DF4F8881C3583D
:1036F000D0408093A909CC57DF4F88819981AA8156
:10370000BB81C458D0408093AA099093AB09A09381
:10371000AC09B093AD09C857DF4F8881C858D04075
:103720008093AE098091AF09811108C065EA73E00A
:1037300082EE9DE10E94CB03709AFFCF0E9497100A
:103740008DB79EB7C8970FB6F8949EBF0FBE8DBFBA
:10375000ADB7BEB7119688E3E7ECFEE001900D929D
:103760008A95E1F78FE19CE00E9420081092C81C26
:103770000FB6F894DEBF0FBECDBF80E0A1DB81E0C5
:10378000C053DF4F0FB6F894DEBF0FBECDBFDF9141
:10379000CF911F910F91FF90EF90DF90CF90BF904E
:1037A000AF900895CF93DF93962F209103012111BD
:1037B00073C08D7F813009F06FC06091C71C9F3F3F
:1037C00009F4960F892F0E94E64DD92F9093C81CBB
:1037D0008091DB0D75DBE091C81CC8E3CE9FF00142
:1037E0001124E953F14F8DB79EB7C8970FB6F894DF
:1037F0009EBF0FBE8DBFADB7BEB711968C2F019087
:103800000D928A95E1F78FE19CE00E9420088DB728
:103810009EB7C8960FB6F8949EBF0FBE8DBF6BEED5
:1038200073E082EE9DE10E9483036091C81C82EEEA
:103830009DE10E946C0B68E273E082EE9DE10E94C4
:1038400083036091C71C70E06150710982EE9DE1B5
:103850000E94790BE091C81CCE9FF0011124E9531E
:10386000F14F8DB79EB7C8970FB6F8949EBF0FBEA5
:103870008DBFADB7BEB7119601900D92CA95E1F715
:103880000E94E612D09302058DB79EB7C8960FB678
:10389000F8949EBF0FBE8DBFDF91CF910895CF9258
:1038A000DF92EF92FF928091F40D823030F4F89421
:1038B00089EE9DE00E94A10B01C0F894C090F00D2C
:1038C000D090F10DE090F20DF090F30D789480918E
:1038D000E50D9091E60DA091E70DB091E80D8C15E6
:1038E0009D05AE05BF0509F450C0B701A6014370A0
:1038F000552766277727452B462B472B09F045C0D0
:103900002091DB0D213099F018F0223029F135C0DB
:103910008C159D05AE05BF0514F082E001C081E065
:10392000F4DB8FEF809311011092C20D0FC06091F4
:10393000C81C8C159D05AE05BF0514F46F5F01C052
:10394000615081E02FDF8FEF809311018091DB0DBB
:10395000B7DA0E94861411C08C159D05AE05BF050F
:103960002CF48FE19CE00E94DC0904C08FE19CE014
:103970000E94F9098091DB0DA3DAC092E50DD09287
:10398000E60DE092E70DF092E80DFF90EF90DF90EA
:10399000CF900895CF92DF92EF92FF920F931F93F3
:1039A000CF93DF93CDB7DEB727970FB6F894DEBF7E
:1039B0000FBECDBF8091DB0D8111C5C08091C20DBE
:1039C0008111C1C007E219E0F80101900020E9F778
:1039D0003197E752F940749708F4B5C00FB6F894E0
:1039E0004091DA1D5091DB1D6091DC1D7091DD1D51
:1039F0000FBE8091FE049091FF04A0910005B0914C
:103A000001056A017B01C81AD90AEA0AFB0A8091FA
:103A1000000190910101A0E0B0E0C816D906EA06C5
:103A2000FB0608F490C04093FE045093FF0460939B
:103A300000057093010540E060E084EC9DE00E9489
:103A4000FF3B62E973E084EC9DE00E94CB0340E021
:103A500060E084EC9DE00E94FF3B40E061E084EC8C
:103A60009DE00E94FF3B4091E30D5091E40D9A01CF
:103A70002D5E3F4F6CED7DE0CE0101960E94E94442
:103A80008091E30D9091E40D9C012F5F3F4F3093A7
:103A9000E40D2093E30DF80101900020E9F7319740
:103AA000E752F94043968E179F0778F01092E40D85
:103AB0001092E30D209100013091010145E0429FF9
:103AC000C001439F900D112402C084EF91E09093B8
:103AD000010180930001BE016F5F7F4F84EC9DE088
:103AE0000E94893E8091DB0D40E060E0811117C0AB
:103AF00084EC9DE00E94FF3B61E973E084EC9DE073
:103B00000E9474034091DB0D60E084EC9DE00E9414
:103B1000FF3B60E084EC9DE00E94FE3C10C084EC22
:103B20009DE00E94FF3B61E973E084EC9DE00E9410
:103B3000740340E060E084EC9DE00E94FF3BCE0116
:103B400001960E94AD4227960FB6F894DEBF0FBED5
:103B5000CDBFDF91CF911F910F91FF90EF90DF903C
:103B6000CF900895CF93DF93CDB7DEB72E970FB6E2
:103B7000F894DEBF0FBECDBF82EE9DE10E94A94D3D
:103B8000892B09F4A5C082EE9DE10E94974D8E33EA
:103B900009F493C09CF48B3209F485C02CF4813273
:103BA00059F70E94651094C08D3209F480C08C339F
:103BB00019F78FE19CE00E94F9098AC08C3609F45C
:103BC0006DC054F48F3309F47DC08436A9F68FE1BB
:103BD0009CE00E9423047CC08F3629F1823761F675
:103BE00048E750E062EE7DE1CE0108960E947A40FF
:103BF00041E050E060E070E0CE0108960E94274668
:103C0000BE01685F7F4FCE0101960E946243CE01E4
:103C100001969EDCCE0101960E94AD42CE0108962F
:103C20000E94AD42A9CF6BEE73E082EE9DE10E944F
:103C300083036091C81C82EE9DE10E946C0B68E2D8
:103C400073E082EE9DE10E9483036091C71C70E0E7
:103C50006150710982EE9DE10E94790BE091C81CD0
:103C600088E38E9FF0011124E953F14F2DB73EB741
:103C7000285331090FB6F8943EBF0FBE2DBFADB724
:103C8000BEB7119601900D928A95E1F70E94E61257
:103C90000FB6F894DEBF0FBECDBF1AC08FE19CE017
:103CA0000E94370715C06091C81C6F5F03C0609108
:103CB000C81C615081E076DD0BC08FE19CE00E9462
:103CC000DC0906C067E279E082EE9DE10E94CB0349
:103CD0002E960FB6F894DEBF0FBECDBFDF91CF9109
:103CE0000895DF92EF92FF920F931F93CF93DF938C
:103CF000CDB7DEB7C055D1090FB6F894DEBF0FBE01
:103D0000CDBF7C018B016830710508F061C0DD24F6
:103D1000DA94D9AE60961FAE609761961FAE619738
:103D2000BE016F5F7F4F80E5282F209FC001219F3C
:103D3000900D11240E94460B89AD90E008171907D9
:103D400009F44FC062E074E082EE9DE10E94CB0373
:103D500069E174E082EE9DE10E948303A80160E0C6
:103D600070E082EE9DE10E94723F82EE9DE10E9432
:103D7000DF3E62E274E082EE9DE10E94830349AD82
:103D800050E060E070E082EE9DE10E94723F82EEC2
:103D90009DE10E94DF3ED09211018091DB0D90D811
:103DA00042E060E084EC9DE00E94FF3B68E274E04A
:103DB00084EC9DE00E94830343E060E084EC9DE09E
:103DC0000E94FF3B68E374E084EC9DE00E94830363
:103DD000E091C81C88E38E9FF0011124E953F14F54
:103DE0000DC061966FAD61978FE19CE00E94D6098E
:103DF0008091DB0D65D888E3FE013196D7010190F3
:103E00000D928A95E1F7C701C05BDF4F0FB6F894BA
:103E1000DEBF0FBECDBFDF91CF911F910F91FF90FD
:103E2000EF90DF900895CF93DF93CDB7DEB7E8979B
:103E30000FB6F894DEBF0FBECDBF809111018F3F4A
:103E400009F449C06DE474E082EE9DE10E948303B1
:103E50006091110182EE9DE10E946C0B82EE9DE16A
:103E60000E94DF3E809111011F928F93E091C81C48
:103E700088E38E9FF0011124E953F14F2DB73EB72F
:103E8000285331090FB6F8943EBF0FBE2DBFADB712
:103E9000BEB7119601900D928A95E1F70E94BC0D74
:103EA0000FB6F894DEBF0FBECDBF6091110170E078
:103EB000CE01019616DF8091DB0D02D880911101B1
:103EC0000E94AE14E0911101F0E0EA57FB4FE0814F
:103ED000F0E00E944249E8960FB6F894DEBF0FBEAC
:103EE000CDBFDF91CF9108958F929F92AF92BF92F5
:103EF000FF920F931F93CF93DF93CDB7DEB7E89771
:103F00000FB6F894DEBF0FBECDBF182F0091110180
:103F1000883039F158F48230A1F08430C1F081301A
:103F2000D9F48FE19CE00E94370716C0803209F176
:103F300018F48031D1F010C08034F9F0803809F1E4
:103F40000BC0013011F081E005C08FEF03C00230DB
:103F5000E1F382E080931101F12C812C912C54012A
:103F60002BC0033091F383E0F5CF043071F384E08C
:103F7000F1CF053051F385E0EDCF063031F386E027
:103F8000E9CF073011F387E0E5CF80B18F3F49F1EA
:103F9000113091F061E070E080E090E00E94A14A71
:103FA00020ED821627E09206A104B10448F43FEF09
:103FB000831A930AA30AB30A80B1181749F3E5CF0D
:103FC000F110F5CF80911E09882309F46FC080910C
:103FD00011018F3F11F40093110125DFFF24F394A9
:103FE000E6CFF1104CC0109111011F3F09F1612F74
:103FF00070E0CE01019675DE8DB79EB7C8970FB6FB
:10400000F8949EBF0FBE8DBFADB7BEB7119688E3C3
:10401000FE01319601900D928A95E1F78FE19CE0C7
:104020000E9420080FB6F894DEBF0FBECDBF27C098
:10403000E091C81C88E38E9FF0011124E953F14FF1
:104040002DB73EB7285331090FB6F8943EBF0FBEC7
:104050002DBFADB7BEB7119601900D928A95E1F7CD
:104060008FE19CE00E9420080FB6F894DEBF0FBEDF
:10407000CDBF8091DB0D0E946017109311010E944B
:10408000861462E370E080E090E0E8960FB6F89462
:10409000DEBF0FBECDBFDF91CF911F910F91FF907B
:1040A000BF90AF909F908F900C94A14AE8960FB666
:1040B000F894DEBF0FBECDBFDF91CF911F910F915E
:1040C000FF90BF90AF909F908F900895EF92FF92D6
:1040D0000F931F93CF93DF934091030160E089EC2E
:1040E0009CE1DBD2809103018111EFC11091210E7F
:1040F000113108F0CBC1E0911F0EF091200E8081AC
:104100009181DC01ED91FC910084F185E02D099510
:10411000892B09F4BBC18091C40E8E7F8093C40E9D
:10412000E0911F0EF091200E80819181DC01ED91D4
:10413000FC910284F385E02D0995C82F8D3F09F489
:10414000A5C18091290E90912A0E009709F06BC0AD
:10415000C093240ED091220E8D2F0E94A6150E948E
:104160009615882361F0C7FD0AC0D093240EC09332
:10417000250E81E090E090932A0E8093290EC09145
:10418000240E8C2F0E94A615813FC1F1B0F4803B14
:10419000C1F140F48039A9F1803A99F1803809F0F1
:1041A00055C02FC0803D51F118F4803C39F14EC00C
:1041B000803E39F1803F61F149C0873F49F130F4D9
:1041C000833FE1F0F0F0863F29F040C08D3F10F0D2
:1041D0008E3FE0F18093310E1092300E1092320E2D
:1041E0001092330E81E08093B40E10922A0E10923A
:1041F000290E1092280E1092270E2CC122E030E0DA
:1042000002C023E030E03093280E2093270E35C003
:1042100020E830E03093280E2093270E1092220ED3
:104220008093340E2AC0C7FF8EC0CD3F08F058C01F
:10423000C83F08F057C0C03F09F04EC02091340E6F
:10424000203F09F460C0273F09F45DC08091C40E8F
:1042500081608093C40EE091F70DF091F80D3097D6
:1042600009F0099510922A0E1092290E1092280E2C
:104270001092270E1092220E09C12091290E309122
:104280002A0E4091270E5091280E415051092417B3
:104290003507D8F08093310ECF70CF5FC093300ECA
:1042A0008091250E8093320E1092330E81E090E0C3
:1042B0009093B60E8093B50E10922A0E1092290E8E
:1042C0001092280E1092270E1BC02F5F3F4F309385
:1042D0002A0E2093290EDAC0C73F09F4AFCF33C0AE
:1042E000CE3F88F1C093310E1092320E1092330EF1
:1042F0001092300E81E090E09093B60E8093B50E50
:104300008093B40EA7C09C012F5F3F4FFC01EB5080
:10431000F24FC7AF80EF8093310E2093320E30936F
:10432000330E1092300E3093B60E2093B50E81E00E
:104330008093B40E10922A0E1092290E1092280E1D
:104340001092270E7EC02091240EFC01EB50F24FFC
:10435000203F11F0273F11F4C7AF01C0C7A7E0907D
:10436000270EF090280E97012150310982179307EC
:1043700008F46AC0D091240ED03F11F0D73F19F550
:10438000C091B30E80EF8093B30E8093310E80E81E
:104390008093320E1092330E1092300E80E890E02F
:1043A0009093B60E8093B50E81E08093B40E85EFA6
:1043B0009DE00E94D61487EF8093340EC093350E93
:1043C00082E090E042C08D2F0E94A615C82F8093F6
:1043D000310E0E949615882331F08D2F8F708F5FDC
:1043E0008093300E02C01092300E8091250E809383
:1043F000320EB3E0EB16F10419F48091260E01C0E1
:1044000080E08093330E10922A0E1092290E1092A3
:10441000280E1092270E81E08093B40EC03B71F0FD
:1044200038F4C03959F0C03A49F0C03851F406C0E8
:10443000C03D21F0C03E11F0C03C19F4D093220ED3
:1044400009C01092220E06C0019690932A0E809306
:10445000290E1CC08091310E803929F48091330ED1
:10446000882309F48AC08091310E8058813608F083
:1044700088C08091300E181709F483C0112309F405
:1044800080C0612F85EF9DE00E940A1608DA8091B6
:10449000C30D882331F01092C30D8091DB0D0E9473
:1044A000601778DA82EE9DE10E94A94D1816190670
:1044B0000CF458DB80B1809509F468C0DF91CF918E
:1044C0001F910F91FF90EF900FCD0E9429148091C2
:1044D000020190910301891721F0811102C00E940D
:1044E000241A9091070180910801981731F00E94D9
:1044F000180D809108018093070180910405909127
:1045000005051816190674F48130910519F41092F6
:104510001B0903C021E020931B0901979093050517
:104520008093040580910401811108C0DF91CF912F
:104530001F910F91FF90EF900C94A51386E1E82E48
:1045400089E0F82E0EE019E0C0E0D0E0F7016081CC
:10455000D8018C91681739F0CE010E94F913F70148
:104560008081D8018C932196BFEFEB1AFB0A0F5F75
:104570001F4FC830D10551F7D9CF80E88093310E55
:1045800072CF85EF9DE00E94D6147BCFDF91CF9153
:104590001F910F91FF90EF9008958091F41D882353
:1045A00071F08FB7F89492E09093E9009BE6209128
:1045B000E80025FF03C09093E800F9CF8FBF109269
:1045C0003D1D0895FC018091F41D882369F19FB77A
:1045D000F89481E08093E9002091E400275E309117
:1045E000E80035FD0EC09FBF9091E4002917E1F06F
:1045F0009091F41D9923C1F09FB7F8948093E9003E
:10460000EECF6093F1008091E80085FD06C08AE35B
:104610008093E8001092F21D03C084E08093F21DA5
:104620009FBF81E090E0089581E0828380E090E088
:104630000895FF920F931F93CF93DF93EC01F62E13
:10464000FC01EE5AFF4F0190F081E02D8C01005CDF
:104650001F4F309761F0D8016D917C916C337105DB
:1046600030F040E004960995F80111821082D801DB
:104670008D919C9111978C33910548F49C012F5F8B
:104680003F4F2D933C93FE01E80FF91FF482DF9119
:10469000CF911F910F91FF900895DF92EF92FF92BB
:1046A0000F931F93CF93DF93EC019FB7F894809102
:1046B000F41D811102C09FBFE9C184E08093E9002D
:1046C0008BE62091E80025FD07C022FF03C0809300
:1046D000E800F7CF9FBFD9C12091F100F090F10021
:1046E0001091F1000091F1008091E80085FD03C078
:1046F0008BE68093E8009FBF9F2D907F442381F13C
:104700009039A1F48F2D8F70813011F4105806C0AC
:10471000823019F0833011F410580058CE5BDF4F0F
:10472000E881F981602F812F0995AFC1903809F098
:10473000ACC18F2D8F708C3010F0105802C08830B3
:1047400010F0005803C0843008F01058CC5BDF4FE5
:10475000E881F981402F612F8F2D8370099595C1D4
:104760002F70E22E8F2D8F70DD24D394D80E88EF1A
:10477000820F873008F082C0662311F0D61285C1FF
:1047800028E0E21208C0903809F07FC19983FE0149
:10479000EC5BFF4F32C089E0E8121AC0903909F093
:1047A00074C1002329F09983FE01EA5BFF4F25C005
:1047B00080E88983FE01EC5BFF4F0190F081E02DE2
:1047C000309709F457C040E0612F8D2D099552C0F4
:1047D0002AE0E21208C0903A09F057C19983FE011D
:1047E000E85BFF4F0AC08BE0E8120EC0903B09F077
:1047F0004CC19983FE01E65BFF4F0190F081E02DF3
:104800003097C1F1402FE0CF2CE0E21208C0903C7D
:1048100009F03BC19983FE01E45BFF4F0AC08DE0C4
:10482000E81210C0903D09F030C19983FE01E25BAF
:10483000FF4F0190F081E02D3097E1F0612F8D2D39
:10484000099518C0903E09F020C19983FE01E05BF4
:10485000FF4F0190F081E02D309761F0602F6F776E
:1048600020E8629FB0011124812F8F77682B70524E
:104870008D2D0995D8821A830B8305C18EEF820F87
:10488000823008F0AEC08F2D90E0FC01E15FF109AD
:10489000EF30F10508F0F9C0E759FF4F0C94444E92
:1048A000FE01EA5AFF4F17C0FE01E85AFF4F019080
:1048B000F081E02D309709F492C0802F8F7720E8A7
:1048C000829FC0011124212F2F77822B099587C049
:1048D000FE01E65AFF4F0190F081E02D309709F478
:1048E0007EC0812F7BC0FE01E45AFF4F0190F08112
:1048F000E02D309709F067C072C0FE01E25AFF4F09
:104900000190F081E02D309709F05DC0FE01E6597D
:10491000FF4F0190F081E02D309709F460C088EFDF
:104920005DC0FE01E05AFF4F0190F081E02D30970D
:1049300009F049C0FE01E659FF4F0190F081E02DDA
:10494000309709F44CC08AEF49C0FE01EE59FF4F81
:104950000190F081E02D3097B1F5FE01E659FF4F4F
:104960000190F081E02D3097D1F18BEF37C0FE013F
:10497000EC59FF4F0190F081E02D309721F5FE01B9
:10498000E659FF4F0190F081E02D309741F18CEF17
:1049900025C0FE01EA59FF4F0190F081E02D3097CC
:1049A00091F4FE01E659FF4F0190F081E02D309720
:1049B000B1F08EEF13C0FE01E859FF4F0190F08176
:1049C000E02D309711F009950AC0FE01E659FF4F1E
:1049D0000190F081E02D309711F08FEF0995F98269
:1049E00049CF84E0281308C06F2DCE0122DE612F4D
:1049F000CE011FDE602F44C08BEF820F833088F51D
:104A00006F2DCE0116DE25E0E21649F0612FCE01B2
:104A100010DE87E0E81203C0602FCE010ADEFE013F
:104A2000E05CFF4F608171816A837B831182108219
:104A300080EF898372960190F081E02D309729F004
:104A400041E0CE01049609951EC0FE01EC5AFF4FCD
:104A50000190F081E02D3097B1F0CE0104960995D8
:104A600012C02FE0E21211C087EF8F1508F40BCFB0
:104A7000FE01E05CFF4F80819181892B31F06F2D29
:104A8000CE01D7DD02C081E001C080E0DF91CF918F
:104A90001F910F91FF90EF90DF9008959FB7F894CA
:104AA0008091F41D8823C1F082E08093E9003BE609
:104AB0002091E800822F807225FF0EC08091F100C6
:104AC000811103C03093E800F3CF2091E80025FD69
:104AD00003C02BE62093E8009FBF08959C019091AE
:104AE0003D1D992311F0892F06C0C901D7DF882306
:104AF00021F080933D1D90E008958FEF9FEF089582
:104B00009C0190913D1D992321F010923D1D892F0C
:104B100004C0C901C3DF882311F090E008958FEF2E
:104B20009FEF089520913D1D211105C0B7DF882317
:104B300029F080933D1D81E090E0089580E090E0B1
:104B40000895E5E3FDE188E0DF011D928A95E9F72C
:104B500088EE93E0A0E0B0E083839483A583B683DE
:104B600082E994E091838083089580960C94D034F8
:104B7000FC018281806882839F01245F3F4F4485CE
:104B8000558566857785868197810C943C368F9212
:104B90009F92AF92BF92EF92FF920F931F93CF938A
:104BA000DF93EC01888185FF02C000E057C088894F
:104BB0009989AA89BB8981159E4FAF41B105A8F794
:104BC000CE01D6DF082F882381F34C855D856E8565
:104BD0007F858E819F810E944F354B015C018E81C4
:104BE0009F8125E0B501A40180960E9411357C01CA
:104BF000892BD9F280E092E0F7019C0111922150BB
:104C00003040E1F711E0EE81FF818281181780F4D6
:104C10009701B501A401410F511D611D711D8081D6
:104C200091810E94CB3A882309F4BFCF1F5FEBCF5D
:104C300090E0A0E0B0E029E0880F991FAA1FBB1FF9
:104C40002A95D1F7488959896A897B89840F951FEC
:104C5000A61FB71F888B998BAA8BBB8B802FDF91E8
:104C6000CF911F910F91FF90EF90BF90AF909F90C9
:104C70008F900895CF93DF93EC01262F4C895D89A7
:104C80006E897F898E819F8180960E941135009761
:104C900061F02C813D812F70332745E0220F331FB7
:104CA0004A95E1F7820F931F02C080E090E0DF9108
:104CB000CF910895CF93DF93DC01FC0190E048E0B1
:104CC00080E05EE220812032C1F0983031F4EB01C7
:104CD000C80FD11D58838F5F40E120813FEB320F19
:104CE0003A3130F41C963C911C97342309F0205E35
:104CF000EB01C80FD11D28838F5F9F5F31969B30DA
:104D000009F7FB01E80FF11D1082DF91CF910895A3
:104D10000F931F93FC010089118922893389FB01BC
:104D20000083118322833383FC0184859585A685C6
:104D3000B785FB0184839583A683B7831F910F9169
:104D40000895FC018081811114C080E2DF01982F59
:104D50001D929A95E9F777836683DB0115969C91FE
:104D6000903119F0903229F480E4808381E08283CD
:104D7000089580E008953F924F925F926F927F92E4
:104D80008F929F92AF92BF92CF92DF92EF92FF925B
:104D90000F931F93CF93DF9300D000D0CDB7DEB732
:104DA0009C838B834B017A01DC018C91882311F168
:104DB00012969C9190FF1EC028C0F50133803422CA
:104DC0000115110509F097C0311095C0892B8A2B68
:104DD0008B2B09F479C0AB81BC811C964D915D9100
:104DE0006D917C911F9729813A81C5010E946D3593
:104DF00087FF79C0AB81BC8111968C91119782603D
:104E000011968C938FEF9FEF20C183FF17C0EB812A
:104E1000FC81808D918DA28DB38D408951896289ED
:104E20007389841B950BA60BB70BA70160E070E09C
:104E3000481759076A077B07D0F018C085FF17C0CD
:104E4000AB81BC811696ED91FC9117978681978175
:104E500045E0880F991F4A95E1F750962D913C91B6
:104E60005197821B930B8E159F0508F47C016701F7
:104E7000312CEB81FC813C96FA83E983C114D10487
:104E800009F466C0EB81FC8180899189A289B3898C
:104E90008C0111702081A680B780AC01BD0139E082
:104EA00076956795579547953A95D1F725FF85CF24
:104EB000D5015C964D905D906D907C905F97440E0F
:104EC000551E661E771E2BC026FD02C0EB81FC819D
:104ED000848D958DA68DB78DEB81FC818487958718
:104EE000A687B78708C0811106C0EB81FC8180814D
:104EF000807771F57FCFAB81BC811C964D915D9120
:104F00006D917C911F9716968D919C9117970E9499
:104F10004F352B013C01430C511C611C711CAB81B2
:104F2000BC811696ED91FC9117970115110509F0BA
:104F30006AC0C114B2E0DB0608F465C043A154A105
:104F400065A176A1441655066606770629F45BC06E
:104F5000C7018C199D0979C0C114B4E0DB0698F132
:104F60008601012F11270695AB81BC818C9185FDAF
:104F700007C08281831990E08017910708F48C01A3
:104F80005801BA2CAA24BB0C4415550566057705B3
:104F900080F4AB81BC811696ED91FC91179794013A
:104FA000B301A201808191810E94683A811118C0E9
:104FB00021CF400F511F611D711D44165506660615
:104FC0007706E0F1E6CF9401B301A20180819181DF
:104FD0000E94063A882309F40DCFA12C82E0B82E56
:104FE0008A0C9B1CEB81FC8180899189A289B38901
:104FF0008A0D9B1DA11DB11D808B918BA28BB38B44
:10500000CA18DB083BCF20E0B301A201CF01809694
:105010000E941135009709F4EDCE20E032E0201B0C
:10502000310B56012C153D0508F45901BC01600FE8
:10503000711FA501C4010E94D952D2CFCF01809621
:105040000E94D0348111A5CFD5CE0F900F900F9034
:105050000F90DF91CF911F910F91FF90EF90DF9014
:10506000CF90BF90AF909F908F907F906F905F9008
:105070004F903F9008954F925F926F927F928F92E0
:105080009F92AF92BF92CF92DF92EF92FF920F93D7
:105090001F93CF93DF931F92CDB7DEB74C016B0107
:1050A0002A013901AA24AA94BA2CE12CF12C8701F7
:1050B0000F5F1F4F0415150554F541E050E0BE0188
:1050C0006F5F7F4FC40157DE5C0181E0A816B10419
:1050D000F1F469816D3019F487017801E8CFF601A8
:1050E000EE0DFF1D60836114710419F46A30A9F795
:1050F00008C0062E000C770BC3010E94F352892BC7
:1051000061F3F601E00FF11F1082C80107C0B7FE7E
:1051100003C08FEF9FEF02C08701F3CF0F90DF91A5
:10512000CF911F910F91FF90EF90DF90CF90BF90A4
:10513000AF909F908F907F906F905F904F90089569
:10514000FF920F931F93CF93DF931F92CDB7DEB7DC
:105150008C01FC0180899189A289B3899C01AD01F0
:1051600075E056954795379527957A95D1F7F22FA3
:10517000FF70FF2E11F0611115C041E050E0BE013B
:105180006F5F7F4FC801F7DD813019F080E090E05C
:105190001AC0F80180899189A289B3894F96A11D0F
:1051A000B11D04C08096A11DB11DF801808B918BAB
:1051B000A28BB38BF801868197818796F0E2FF9EE0
:1051C000800D911D11240F90DF91CF911F910F91B0
:1051D000FF9008954F925F926F927F928F929F926D
:1051E000AF92BF92CF92DF92EF92FF920F931F93F5
:1051F000CF93DF93EC014A015B014C845D846E84A4
:105200007F84A881AA2309F491C0488959896A89B1
:105210007B89481559056A057B0509F48DC0811401
:105220009104A104B10429F41C861D861E861F86E4
:1052300078C0A3FF0BC0088D198D2A8D3B8D0815F2
:1052400019052A053B0508F471C014C0A5FF12C05A
:10525000EE81FF818681978125E0880F991F2A952D
:10526000E1F7A0E0B0E088159905AA05BB0508F4B0
:105270005DC057C0EE81FF81848190E009968A016C
:105280009B010150110921093109082E04C03695EE
:105290002795179507950A94D2F775016401B1E037
:1052A000CB1AD108E108F10804C0F694E794D7942A
:1052B000C7948A95D2F7C016D106E206F30620F00D
:1052C000452B462B472B99F4A6FF05C0848D958D61
:1052D000A68DB78D04C08C8D9D8DAE8DBF8D8C87B6
:1052E0009D87AE87BF878E01045F1F4F15C0C01A10
:1052F000D10AE20AF30AF7CF4C855D856E857F857A
:1053000098018E819F810E946D3591E0C91AD10864
:10531000E108F108181654F4C114D104E104F104B1
:1053200059F7888A998AAA8ABB8A06C04C865D8604
:105330006E867F8680E001C081E0DF91CF911F9172
:105340000F91FF90EF90DF90CF90BF90AF909F9024
:105350008F907F906F905F904F900895CF93DF93E1
:10536000FC01208124FF21C0EC010E948A0B61E036
:10537000CE01E6DE009721F48981882369F015C00B
:10538000FC012081222341F0253E89F32E3279F35E
:10539000838583FDECCF09C088E088838A818260A1
:1053A0008A83CE01DF91CF916CC780E0DF91CF91EE
:1053B00008958F929F92AF92BF92FF920F931F9387
:1053C000CF93DF93EC01F22E80E2DE011D928A95ED
:1053D000E9F7FB01868197819F838E835D834C83F0
:1053E000848C958CA68CB78C88869986AA86BB8679
:1053F000FA01EF70FF27DC01979635E0EE0FFF1FF3
:105400003A95E1F7AD014E0F5F1FDA011B962C9123
:1054100023FF03C0188280E062C09C012E0F3F1F53
:10542000D901D2962C9127712883DA011B963C91E1
:10543000387111F4286028830B832F2D227319F003
:105440002881217139F72F2D2F702A83DC01939643
:105450004D915D916D917C9196974C8B5D8B6E8B90
:105460007F8BE80FF91F43AD54AD60E070E0BA01E7
:1054700055274427DF01AF5BBF4F0D911C9120E002
:1054800030E0402B512B622B732BF4FE0AC04115E8
:10549000510561057105F1F00E94DB3681111AC0DA
:1054A000B9CF4C8F5D8F6E8F7F8FED5BFF4F80810B
:1054B0009181A281B381888F998FAA8FBB8FF5FECE
:1054C0000DC0488D598D6A8D7B8DCE0183DE811193
:1054D00005C0A0CF8A8180688A83F1CF81E0DF9107
:1054E000CF911F910F91FF90BF90AF909F908F90A1
:1054F00008958F929F92AF92BF92DF92EF92FF92A8
:105500000F931F93CF93DF93EB01FC0120812111B7
:1055100038C028812077A9F1088919892A893B890F
:105520000F71112722273327012B022B032B49F55B
:10553000142F7C0100E0D12C88889988AA88BB8828
:1055400060E0CE01FDDD0097E1F0FC012081222327
:10555000C1F02E3211F400E0EFCF253EE1F33385A8
:1055600033FD06C0002379F047D4D8120AC00BC01F
:105570003F3089F726FFE0CF022F0F71FC01D58461
:10558000DBCF80E00DC0B501A40185E0769567957D
:10559000579547958A95D1F7212FBE01C70109DF9D
:1055A000DF91CF911F910F91FF90EF90DF90BF900F
:1055B000AF909F908F900895BF92CF92DF92EF921D
:1055C000FF920F931F93CF93DF93FC018081882379
:1055D00011F080E051C0DB019C919077D1F327FD61
:1055E000F8CF122F7A01EB016F014115510521F11E
:1055F0004150510960E070E085E0440F551F661F7F
:10560000771F8A95D1F7CE01E5DD882311F360E09D
:10561000CE0196DDFC01892BE1F283858F3079F490
:1056200080818F71813059F4B5840E2DB5E1EB1670
:10563000F10438F004E105C0CB010E948A0B00E0C0
:10564000B12C60E0CE017CDD009709F4C2CFFC01F3
:105650002081253E09F4BDCF222309F4BACF2E3292
:1056600009F4B7CF002319F0C7D38B11B2CF212F84
:10567000A701BE01C6019DDEDF91CF911F910F9161
:10568000FF90EF90DF90CF90BF900895CF92DF9280
:10569000EF92FF920F931F93CF93DF93CDB7DEB7B7
:1056A000A0970FB6F894DEBF0FBECDBFFC011982E4
:1056B0001A829081907711F480E064C08F01CF014D
:1056C0000E948A0BF801C088D188E288F38860E0E4
:1056D000C80136DD009731F4F8018181882309F48F
:1056E00049C0EACFFC012081222309F443C0253EB2
:1056F00049F32E3239F3838583FDE4CF95E0F694A8
:10570000E794D794C7949A95D1F721E0A601B80100
:10571000CE01019651DF882379F2898184FF04C08C
:10572000CE010196B3DF06C08B8182608B83CE01F0
:105730000196A7D5882309F4BFCFFFEFCF1ADF0A60
:10574000A60160E070E085E0440F551F661F771FDB
:105750008A95D1F7F80180899189A289B389841744
:105760009507A607B70709F4ADCFC80133DD81114E
:10577000A9CFA2CFF8018081807619F4C801EEDDAF
:1057800001C081E0A0960FB6F894DEBF0FBECDBF7A
:10579000DF91CF911F910F91FF90EF90DF90CF900D
:1057A00008950F931F93FB010081118122813381A2
:1057B000FC01008B118B228B338BFB0144815581C3
:1057C00066817781FC0144875587668777871F91BB
:1057D0000F910895EF92FF920F931F93CF93DF9352
:1057E000CDB7DEB729970FB6F894DEBF0FBECDBF99
:1057F0007C0119821A821B821C821D821E821F82DA
:105800001886BE016F5F7F4F83DA41E050E0BE0132
:10581000675F7F4FC701AFDA019719F4098510E080
:1058200002C00FEF1FEF0F3F8FEF180729F0BE01E7
:105830006F5F7F4FC701B5DFC80129960FB6F89497
:10584000DEBF0FBECDBFDF91CF911F910F91FF90B3
:10585000EF9008950F931F93CF93DF93FC01208166
:10586000211102C081E041C0EC01828187FF37C075
:1058700061E0CF01FFD98C01009729F48981816013
:10588000898380E032C0FC018081853EB9F3888144
:1058900083FF08C0888D998DAA8DBB8D848F958FCD
:1058A000A68FB78F8C8D9D8DAE8DBF8DF801938F98
:1058B000828FB58BA48BE0913E1DF0913F1D3097F8
:1058C00059F0B8016A5E7F4FC80148960995F80102
:1058D000808D918D938B828B8A818F778A838E8145
:1058E0009F8143D9882351F2BDCFDF91CF911F9182
:1058F0000F910895CF93DF93EC01ACDF1882DF9115
:10590000CF910895DF92EF92FF920F931F93CF9361
:10591000DF93CDB7DEB7E3970FB6F894DEBF0FBEC7
:10592000CDBF7C018B015BAB4AABD22E19821A82B0
:10593000FC018081882311F080E04EC0FB01808152
:105940008077D1F3EAA9FBA980818F32C9F4EAA953
:10595000FBA980818F3221F43196FBABEAABF7CF04
:10596000F80166817781811103C0C701EAD934C08B
:10597000CE010196E6D98823F9F28E010F5F1F4F01
:10598000AE014E5C5F4FBE016F5D7F4F8AA99BA940
:1059900041D3882389F2EAA9FBA980818823A9F051
:1059A00021E0AE014F5D5F4FB801C7019BD5882351
:1059B00009F4C2CF80E2F701DE01119601900D9249
:1059C0008A95E1F7C70196DFD8CF2D2DAE014F5D47
:1059D0005F4FB801C70186D5E3960FB6F894DEBFD6
:1059E0000FBECDBFDF91CF911F910F91FF90EF9030
:1059F000DF900895CF93DF93CDB7DEB7A0970FB6B2
:105A0000F894DEBF0FBECDBFAB0119821A8222E02F
:105A1000BC01CE01019676DF882319F0CE010196F4
:105A200030D4A0960FB6F894DEBF0FBECDBFDF9185
:105A3000CF9108952F923F924F925F926F927F92F3
:105A40008F929F92AF92BF92CF92DF92EF92FF928E
:105A50000F931F93CF93DF93CDB7DEB72A970FB67F
:105A6000F894DEBF0FBECDBF9E838D835B014A01DC
:105A7000DC018C9183FF10C012968C9181FF0CC0C9
:105A800082FF15C0ED81FE81408D518D628D738D39
:105A9000CF01A0DB81110BC0AD81BE8111968C912D
:105AA0001197816011968C938FEF9FEF8CC1A401A9
:105AB00060E070E0ED81FE8180899189A289B389DF
:105AC00080959095A095B09584179507A607B70780
:105AD00018F374011F01FCE02F0E311CAD81BE8153
